:10080000120A3A02097890E6A1E020E1F990E68D1B
:10081000E0F508E4F563C3E5086480F8E563648007
:1008200098501EAF63EF3395E0FE74802FF582740D
:10083000E73EF583E0FF74092563F8A607056380AA
:10084000D5E490E68DF0F563D3E5086480948040AC
:10085000B574092563F8E6B4AAAC740A2563F8E612
:10086000120C6009CC0109DD0309EE0509FF070A36
:1008700010090A250B09B54009BB41097880098197
:1008800081099D8208FDB0090DB1093BB20969B328
:1008900008FAFD08B4FE089DFF00000806E4FB12FC
:1008A0000BBE0000007B01120BBE000000E4FB7DCC
:1008B000010209C8E4FB7D037F20120BC200000087
:1008C0007B017D037F20120BC2E4F564F565AE6405
:1008D000AF65EE3395E0FDFC7BA07A867901780068
:1008E000D3120C4A400B000565E56570E105648094
:1008F000DD0000E4FB7D030209C802097B056305F6
:100900006374092563F8E6FD7F280209AF056305D6
:1009100063E4F564F565C3E5659404E56464809477
:100920008040030208067433120C860000000000A9
:10093000000565E56570DF056480DB05630563E43C
:10094000F564F565C3E5659404E5646480948040CE
:10095000030208067443120C860000000000000524
:1009600065E56570DF056480DB0563056374092553
:1009700063F8E6FD7F248037120B34120CB20208B4
:10098000060563056374092563F8E6FF740A2563A9
:10099000F8E6FD740B2563F8E6FB020A1F05630504
:1009A0006374092563F8E6FF740A2563F8E6FD120F
:1009B0000C93020806120CCA02080605630563744C
:1009C000092563F8E6FBE4FD7F208053056305639A
:1009D00074092563F8E6FB7D027F218042056305EB
:1009E0006374092563F8E6FB7D037F21803105638D
:1009F000056374092563F8E6FB7D047F21802005EB
:100A000063056374092563F8E6FB7D057F21800F8C
:100A10000563056374092563F8E6FB7D067F2112F3
:100A20000BC20208060563056374092563F8E6FB3B
:0A0A30007D017F21120BC2020806AF
:0D0C8600AE65C39EFFE5632E2409F8E6FD70
:100C930074132FF8A6058DB18FA000000043A08028
:0F0CA30053A07FE4F5B1F5A0000000000000228F
:040BBE007D017F2016
:100BC200EDB40800503F900BCFF8282873020BE7D2
:100BD200020BEB020BEF020BF3020BF7020BFB0211
:100BE2000BFF020C037E01801E7E02801A7E0480AF
:100BF200167E0880127E10800E7E20800A7E408043
:100C0200067E8080027E01EB600974132FF8E64EA7
:100C1200F6800A74132FF8E6FDEEF45DF674132FD6
:100C2200F8E6F5B18FA000000043A08053A07F003A
:050C32000000000000BD
:010C3700229A
:100A3A0090E600E054E74410F0A3E04443F00000DD
:100A4A000090E61074A0F0000000A3F000000090EF
:100A5A00E60B7403F000000000000090E61574E055
:100A6A00F090E6047480F00000007402F0000000C8
:100A7A00E4F000000090E618740DF0000000000099
:100A8A0000F000000090E6207402F0000000E4A3E9
:100A9A00F000000090E6497482F0000000F00000C7
:100AAA000090E61B744DF000000090E6267402F0F8
:100ABA00000000E4A3F000000090E6017443F00097
:100ACA000000E4A3F0000000A3F000000090E60993
:100ADA00F000000090E6367440F0000000A3740AAB
:100AEA00F0000000E490E670F0000000F5A00000BD
:100AFA0000A3F0000000A3F000000075B4FF00009E
:100B0A000075B6FFF5A0F5B100000090E69174807B
:100B1A00F000000090E695F000000090E691F000E9
:0A0B2A00000090E695F000000022A4
:100CB20000000090E6047480F00000007408F00068
:080CC2000000E4F00000002234
:100B3400756600756700756813C3900063E5689572
:100B440082E56795835016AB66AA67A968E4120C20
:100B540038042568F568E43567F56780DC7D807FB7
:100B640020120C937D260F120C93E4FD7F24120CAB
:100B7400937F28120C937F33120C931F120C937DD6
:100B8400C81F120C93E4FD1F120C937F43120C93A5
:100B94001F120C937D401F120C93E4FD1F120C9343
:100BA400E4FB0D7F20120BC20000000B7D01120B31
:0A0BB400C20000001B7D01020BC20D
:0F0CCA007B01E4FD7F21120BC2E41BFD020BC274
:03000000020CD916
:0C0CD900787FE4F6D8FD75816802080001
:100C3800BB010689828A83F0225002F722BBFE019B
:020C4800F32295
:100C4A00EB9FF5F0EA9E42F0E99D42F0EC6480C821
:060C5A0064809845F022C1
:100C6000D083D082F8E4937012740193700DA3A323
:100C700093F8740193F5828883E473740293686037
:060C8000EFA3A3A380DF37
:00000001FF
